:1000000079C100000C9479170C94A4170C94CF17A5
:100010000C94FA170C9425180C9450180C947B1817
:100020000C94A6189BC200003CC3000076C30000DD
:1000300092C100000C94531F8EC100008CC10000BF
:100040008AC1000088C1000086C1000084C1000090
:1000500082C1000080C100007EC100000C94D11854
:100060007AC100000C94A91C0C94DF1C74C1000020
:1000700072C1000070C100006EC100006CC10000C0
:100080006AC1000068C1000066C1000064C10000D0
:100090000C94351D0C946B1D5EC100005CC100000A
:1000A0005AC1000058C1000056C1000054C10000F0
:1000B00052C1000050C100004EC100004CC1000000
:1000C0004AC1000048C100000C94D61F0C94C11D09
:1000D0000C94F71D40C100000C944D1E0C94831E1F
:1000E0003AC1000000000A0B02090C0D0E080703BC
:1000F00004010000000000000000000000000000FB
:1001000000000000000000000000000000000000EF
:1001100012111000000000000000000000000000AC
:100120000000000000000000000001021020200874
:100130000810204010204080020102010804020142
:1001400001020408102040808040201008040201B1
:10015000800402018040201008040201080402010A
:100160000102040810204080010204081020408091
:1001700005050505070508080808020202020A0A23
:100180000808040404040101010101010101030341
:10019000030303030303040707070C0C0C0C0C0CEC
:1001A0000C0C0202020206060606060606060B0BE9
:1001B0000B0B0B0B0B0B00002200250028002B0063
:1001C0002E003100340002010000050108010B017E
:1001D00000002100240027002A002D0030003300F9
:1001E00001010000040107010A0102001D3A277401
:1001F000694E53E8F5D2CF9C81A6BBCDD0F7EAB9C2
:10020000A4839E25381F02514C6B76879ABDA0F3BC
:10021000EEC9D46F7255481B06213C4A57706D3E9B
:10022000230419A2BF9885D6CBECF1130E293467AD
:100230007A5D40FBE6C1DC8F92B5A8DEC3E4F9AA83
:10024000B7908D362B0C11425F78659489AEB3E080
:10025000FDDAC77C61465B0815322F5944637E2D59
:1002600030170AB1AC8B96C5D8FFE2263B1C015271
:100270004F6875CED3F4E9BAA7809DEBF6D1CC9F39
:1002800082A5B8031E3924776A4D50A1BC9B86D540
:10029000C8EFF24954736E3D20071A6C71564B1823
:1002A00005223F8499BEA3F0EDCAD735280F12412D
:1002B0005C7B66DDC0E7FAA9B4938EF8E5C2DF8CFB
:1002C00091B6AB100D2A3764795E43B2AF8895C6FC
:1002D000DBFCE15A47607D2E3314097F6245580BE1
:1002E00016312C978AADB0E3FED9C400081D941DC9
:1002F000201EAC1E11241FBECFEFD1E2DEBFCDBF4A
:1003000000E00CBF14E0A0E0B2E0E2E1F1E600E0C2
:100310000BBF02C007900D92A633B107D9F728E0B2
:10032000A6E3B4E001C01D92AA3AB207E1F711E0DA
:10033000CAE7D1E000E006C021970109802FFE0145
:100340000E94132FC637D10780E00807A9F70E9443
:10035000012C0C94873054CE9CB1892F807294FF6D
:1003600016C0811116C080913A0490913B04A0916F
:100370003C04B0913D040196A11DB11D80933A0447
:1003800090933B04A0933C04B0933D0408958111E5
:10039000EACF80913A0490913B04A0913C04B09143
:1003A0003D040197A109B109E9CF99B1892F847062
:1003B00093FF16C08823B1F08091480490914904BE
:1003C000A0914A04B0914B040196A11DB11D8093E8
:1003D000480490934904A0934A04B0934B040895B1
:1003E000882351F38091480490914904A0914A04D4
:1003F000B0914B040197A109B109E9CF8CB190E00C
:100400009C01220F232F221F330B86FF16C08091E1
:10041000560490915704A0915804B0915904232B8D
:10042000B9F40196A11DB11D809356049093570411
:10043000A0935804B0935904089580915604909164
:100440005704A0915804B09159042130310549F363
:100450000197A109B109E8CF9CB1892F807195FF5F
:1004600016C08823B1F080913A0490913B04A0918A
:100470003C04B0913D040196A11DB11D80933A0446
:1004800090933B04A0933C04B0933D0408958823CB
:1004900051F380913A0490913B04A0913C04B091B7
:1004A0003D040197A109B109E9CF99B1892F88705D
:1004B00092FF16C0811116C08091480490914904A2
:1004C000A0914A04B0914B040196A11DB11D8093E7
:1004D000480490934904A0934A04B0934B040895B0
:1004E0008111EACF8091480490914904A0914A0477
:1004F000B0914B040197A109B109E9CF8CB190E00B
:1005000086FB222720F930E0880F892F881F990B5E
:100510000197B1F48091560490915704A09158042A
:10052000B0915904232BB1F00196A11DB11D809308
:10053000560490935704A0935804B0935904089517
:100540008091560490915704A0915804B091590499
:10055000232B51F30197A109B109E9CF1F920F9203
:100560000FB60F9211242F933F934F935F938F9366
:100570009F93AF93BF9383B121E030E0982F9072A7
:1005800085FD02C030E020E0807440917A045091F3
:100590007B044217530709F062C021E030E081116B
:1005A00002C030E020E0309379042093780488235F
:1005B00009F1911121C08091720490917304A0916E
:1005C0007404B09175040196A11DB11D809372044D
:1005D00090937304A0937404B09375048091720493
:1005E00090917304A0917404B09175040196A11DBB
:1005F000B11D20C09111DFCF8091720490917304DE
:10060000A0917404B09175040197A109B109809378
:10061000720490937304A0937404B0937504809152
:10062000720490917304A0917404B09175040197C1
:10063000A109B1098093720490937304A093740488
:10064000B0937504BF91AF919F918F915F914F913E
:100650003F912F910F900FBE0F901F9018953093E0
:100660007B0420937A04992371F0882371F08091A0
:10067000720490917304A0917404B0917504019672
:10068000A11DB11DC4CF882391F380917204909174
:100690007304A0917404B09175040197A109B10984
:1006A00095CF1F920F920FB60F9211248F939F93A5
:1006B000AF93BF938091060181709091030190FFE9
:1006C0001EC081111EC08091640490916504A091A8
:1006D0006604B09167040196A11DB11D8093640466
:1006E00090936504A0936604B0936704BF91AF91A3
:1006F0009F918F910F900FBE0F901F9018958111B1
:10070000E2CF8091640490916504A0916604B09159
:1007100067040197A109B109E1CF1F920F920FB6AB
:100720000F9211248F939F93AF93BF9380910301F6
:1007300081709091060190FF1EC08823F1F0809196
:10074000640490916504A0916604B09167040196D9
:10075000A11DB11D8093640490936504A093660469
:10076000B0936704BF91AF919F918F910F900FBE8F
:100770000F901F901895882311F380916404909135
:100780006504A0916604B09167040197A109B109BD
:10079000E1CF0F931F93CF93DF938C018EE0809F67
:1007A000E001819FD00D1124CA5CDB4F79836883FF
:1007B0005B834A838881998160E00E94141B8A814F
:1007C0009B8160E00E94141B8881998161E00E94F6
:1007D000501B8A819B8161E00E94501B02301105F1
:1007E00009F487C064F40115110501F10130110508
:1007F00009F450C0DF91CF911F910F9108950330FC
:10080000110509F4A5C004301105A1F78091680015
:1008100081608093680080916B00806280936B00A0
:1008200080916B00806480936B00E4CF80913604EC
:100830009091370402978431910530F5895E9C4F81
:10084000FC018081082E000C990B41E050E06CEA1D
:1008500071E00E94FF16809138049091390402974C
:1008600084319105A0F4895E9C4FFC018081082EA3
:10087000000C990B41E050E06CE272E0DF91CF9107
:100880001F910F910C94FF168FEF9FEFDECF8FEF2C
:100890009FEFF0CF809144049091450402978431FA
:1008A000910508F5895E9C4FFC018081082E000CA3
:1008B000990B41E050E065E572E00E94FF168091DF
:1008C00046049091470402978431910578F4895E3B
:1008D0009C4FFC018081082E000C990B41E050E0F8
:1008E00065ED71E0CBCF8FEF9FEFE3CF8FEF9FEF01
:1008F000F5CF809152049091530402978431910571
:1009000008F5895E9C4FFC018081082E000C990B34
:1009100041E050E06EEF71E00E94FF1680915404B8
:100920009091550402978431910578F4895E9C4F2B
:10093000FC018081082E000C990B41E050E06EE72D
:1009400072E09CCF8FEF9FEFE3CF8FEF9FEFF5CF5C
:100950008091680084608093680080916800826064
:100960008093680080916D00816080936D0080911C
:100970006C00826080936C003DCF2EE0269FF001DA
:10098000279FF00D1124EA5CFB4F648175818681FD
:10099000978108950895CF93282F882351F0CB0194
:1009A000BA01C22F0E94F32C8FEF8C0FCF910C94C1
:1009B000D819CF9108950F931F938B019C0183E069
:1009C00036952795179507958A95D1F704581B4FAB
:1009D000462F477021E030E0F90102C0EE0FFF1F03
:1009E0004A95E2F7AF01F80120812423CB0101965B
:1009F000211102C090E080E01F910F9108950F93A4
:100A00001F938B019C0183E03695279517950795D9
:100A10008A95D1F7677081E090E001C0880F6A95F0
:100A2000EAF7F801E458FB4F2081452B31F480951B
:100A3000822380831F910F910895822BFACFCF924A
:100A4000DF92EF92FF92CF93DF936B017C0161E025
:100A50008C2D0E94141BE6012196AE01C701B60140
:100A6000CEDFCE01DF91CF91FF90EF90DF90CF905E
:100A70000895882341F08150682F70E090E080E075
:100A800050E040E0BCCF0895611102C00C94141BEB
:100A90006130E1F362E0FACF662319F061E00C9473
:100AA000501B60E0FCCF4F925F926F927F928F92CB
:100AB0009F92AF92BF92CF92DF92EF92FF920F93ED
:100AC0001F93CF93DF93C0907B08D0907C08E09079
:100AD0007D08F0907E08C701B6010E94262D4B01CB
:100AE0005C012091DE023091DF024091E0025091E2
:100AF000E1020E94EF2C87FF21C2F7FC1FC2809108
:100B0000D6029091D702A091D802B091D9028093D9
:100B1000820890938308A0938408B093850820E00E
:100B200030E040E85FE36091DA027091DB0280918F
:100B3000DC029091DD020E948A2C9B01AC01C50170
:100B4000B4010E94772E87FDFDC110927B081092A0
:100B50007C0810927D0810927E0860E070E0CB0166
:100B60000CDF0E94262D2091E6023091E702409191
:100B7000E8025091E9020E947B2E609386087093F0
:100B8000870880938808909389082091EA02309121
:100B9000EB024091EC025091ED020E947B2E6B0122
:100BA0007C01209182083091830840918408509103
:100BB00085080E948B2C4B015C012091EE02309144
:100BC000EF024091F0025091F102C701B6010E947C
:100BD0007B2E2B013C0120916F08309170084091D1
:100BE0007108509172080E948A2C2091C60230919F
:100BF000C7024091C8025091C9020E947B2E6B012E
:100C00007C012091C2023091C3024091C4025091F4
:100C1000C502C501B4010E947B2E9B01AC01C70136
:100C2000B6010E948B2C209173083091740840917A
:100C30007508509176080E948B2C60938A087093F7
:100C40008B0880938C0890938D082091D20230916C
:100C5000D3024091D4025091D5020E94EF2C682F0C
:100C6000661F6627661F84E017DF60911F0870917A
:100C7000200880912108909122089DDE90931E0803
:100C800080931D0800918A0810918B08D0918C08E0
:100C9000C0918D08C090CE02D090CF02E090D002DB
:100CA000F090D1029601A701B8018D2F9C2F0E94D0
:100CB000772E1816A4F0C090FA02D090FB02E090B4
:100CC000FC02F090FD029601A701B8018D2F9C2F28
:100CD0000E94EF2C87FD03C06801ED2EFC2E2091B1
:100CE000FE023091FF024091000350910103B601D2
:100CF000C7010E947B2E0E94612D6B017C0138D3BD
:100D000081112EC1C701B60108D3811129C120E08C
:100D100030E040E853E4C701B6010E947B2D6B012F
:100D20007C0120E030E0A9010E94EF2C87FF1BC16D
:100D3000C701B60190580E94F82C619570E090E0D0
:100D400080E00E94242DAB01BC0180911D08909190
:100D50001E0821DE40926F08509270086092710860
:100D6000709272082091CA023091CB024091CC025D
:100D70005091CD02C501B4010E947B2E2091F20258
:100D80003091F3024091F4025091F5020E947B2EC3
:100D9000209173083091740840917508509176083D
:100DA0000E948B2C6093730870937408809375086D
:100DB0009093760881E090E00E94AA164091000886
:100DC00050910108609102087091030890E080E062
:100DD0000E94A6168090100890901108A09012080A
:100DE000B090130820E030E040E85FEBC501B401AB
:100DF0000E94EF2C882331F1C0900008D0900108A8
:100E0000E0900208F0900308A7019601C501B40123
:100E10000E948A2C4B015C0120E030E040E054E36A
:100E2000C701B6010E947B2E9B01AC01C501B40134
:100E30000E94772E181634F08BE293E09093EB0724
:100E40008093EA0780911408882331F08BE293E0C5
:100E50009093EB078093EA07C0900408D0900508B0
:100E6000E0900608F09007088FEFC81AD80AE80A41
:100E7000F80AC0920408D0920508E0920608F092A1
:100E80000708C114D104E104F10499F48091080821
:100E900090910908A0910A08B0910B080196A11D34
:100EA000B11D8093080890930908A0930A08B09395
:100EB0000B0880900C0890900D08A0900E08B09040
:100EC0000F08609108087091090880910A089091B4
:100ED0000B080E94242DA50194010E947B2E20E086
:100EE00030E040E85FE40E947B2E2B013C01C7010B
:100EF000B6010E94242DA50194010E947B2E9B0126
:100F0000AC01C301B2010E948B2C60930008709366
:100F100001088093020890930308DF91CF911F91FD
:100F20000F91FF90EF90DF90CF90BF90AF909F9088
:100F30008F907F906F905F904F90089580E090E049
:100F4000DC01E5CD8FEFC81AD80AE80AF80AC0928A
:100F50007B08D0927C08E0927D08F0927E08FDCD5F
:100F6000C12CD12C7601C701B6010E94F82CE6CE27
:100F70008F929F92AF92BF92DF92EF92FF920F9368
:100F80001F93CF93DF9384E090E090D1EAEEF7E0F7
:100F90008BE2DF011D928A95E9F780E090E0A0E8FE
:100FA000BFEB86A397A3A0A7B1A78FE892ECA5EF0C
:100FB000BCE382A393A3A4A3B5A388E29EEBAAE11A
:100FC000BEEB84839583A683B78383E89BEDAFE56F
:100FD000B0E380879187A287B38783EE9DEDAEE56E
:100FE000BBEE84879587A687B7878DE590E8ACE14F
:100FF000B4E8808B918BA28BB38BA1EAB4E0B3836E
:10100000A283C9E9D4E01196DC93CE938FE393E0F9
:10101000998388839B838A839D838C839F838E831C
:101020008EEF97E015969C938E9314978EEE97E033
:1010300013969C938E93129780E098E017969C935A
:101040008E931697A2E8B8E08CE0ED0119928A958C
:10105000E9F7C5E1D8E08DE6DE011D928A95E9F752
:101060002FE834E08AE0D9011D928A95E9F7A5E8D6
:10107000B4E0B58BA48B82E190E011969C938E93A3
:101080008AE992E013969C938E93129786E792E0FA
:1010900015969C938E9314978AE292E017969C93F0
:1010A0008E93169786E092E019969C938E931897EC
:1010B000DD24D394D0928108812C912C5401839407
:1010C00080926A0890926B08A0926C08B0926D08AA
:1010D00042E050E063E070E090E080E05ADBD092C4
:1010E0006E0810926308D0927F08809264089092F4
:1010F0006508A0926608B092670861E084E0C4DCED
:10110000D09268081882D092800822E32E8793E359
:101110009F8784E3888B85E3898B86E38A8B87E3CB
:101120008B8B88E38C8B89E38D8B81E38E8B30E313
:101130003F8B888F898F8A8F2B8F8C8F9D8F83E237
:1011400098E09F838E8385E090E0A0E0B0E08A87FE
:101150009B87AC87BD871D8289829A82AB82BC82C5
:10116000E12CF12C8701A801970165E070E080E097
:1011700090E065DC998788876A857B858C859D856D
:101180001ADC9987888706DCDD8210927B08109232
:101190007C0810927D0810927E08EEEBF2E08081D0
:1011A0009181A281B38180936F0890937008A0937E
:1011B0007108B093720880AD91ADA2ADB3AD8093CC
:1011C000730890937408A0937508B0937608DF9124
:1011D000CF911F910F91FF90EF90DF90BF90AF9054
:1011E0009F908F90089580916908811103C081E0DC
:1011F0008093690880916308811103C081E0809326
:10120000630880911508811132C081E08093150830
:101210008091160890911708A0911808B0911908AC
:101220000197A105B10519F580911A088823F9F0F5
:1012300060911F08709120088091210890912208E8
:10124000BADB90931E0880931D0840E050E0BA017D
:10125000A2DB60911F087091200880912108909175
:101260002208A9DB90931E0880931D0802CC0895E4
:1012700060E070E080E89FE7089560E070E080E85B
:101280009FE7089560E070E080E89FEF089560E0D8
:1012900070E080E89FEF089560E070E080EC9FEFE1
:1012A000089560E070E080EC9FEF0895F5DF6093B3
:1012B0009A0870939B0880939C0890939D08F1DF97
:1012C00060938E0870938F08809390089093910894
:1012D000CFDF609396087093970880939808909357
:1012E0009908CBDF609392087093930880939408D9
:1012F00090939508C7DF60939E0870939F08809332
:10130000A0089093A108C3DF6093A2087093A3087C
:101310008093A4089093A5080895CF92DF92EF924E
:10132000FF92CF936B017C01AC019B01609192080D
:101330007091930880919408909195080E94EF2CE9
:10134000C1E0882371F0A70196016091A208709115
:10135000A3088091A4089091A5080E94EF2C811108
:10136000C0E08C2FCF91FF90EF90DF90CF90089549
:101370000F931F938B019C010027112720783F7743
:101380000115110520483F4749F4AB01BC016F77B7
:10139000772781E0452B462B472B09F480E01F91EE
:1013A0000F910895EF92FF920F931F93CF93DF93C6
:1013B000EA01F901DC011496ED90FC901597129664
:1013C0004D915C9113974E0D5F1D288139811896C0
:1013D0000D911C9119970217130730F00D911C9174
:1013E0001197012B09F441C08A01021B130BDC0188
:1013F00018968D919C918E199F09800F911F8617C9
:101400009707DCF1C901860F971F8417950778F4B9
:10141000718360833383228315821482178216823C
:1014200088819981680F791F7983688316C0118339
:10143000008333832283601B710B7583648390E088
:1014400080E01616170614F49E2D8F2D9683878341
:10145000D701A60FB71FB983A88380E0DF91CF9192
:101460001F910F91FF90EF90089518968D919C9188
:10147000821B930B861797075CF681E0EFCFCF9224
:10148000DF92EF92FF92CF93DF936B0184E4869F0C
:10149000E001879FD00D1124C355DB4F8AA99BA97A
:1014A000009721F00E94E52F1BAA1AAA84E48C9DC4
:1014B000F0018D9DF00D1124E355FB4F86A997A9EE
:1014C000009711F00E94E52F84E48C9DF0018D9D22
:1014D000F00D1124E355FB4F138A128A168A178ADE
:1014E000108E118E128E138E148E158E168E178EF0
:1014F00010A211A281E090E093A382A315A214A2EE
:1015000016A217A210A611A613A612A615A614A617
:1015100016A617A610AA11AA13AA12AA15AA14AAE7
:1015200017AA16AA11AE10AE12AE13AE14AE15AEB7
:10153000DF01DE961D921D921D921C921397EE5BA9
:10154000FF4F11821082DF91CF91FF90EF90DF90DB
:10155000CF900895CF93DF93FB01DC016D917C91D7
:10156000DB011696CD91DC918081918123E0880F7B
:10157000991F2A95E1F7AA81BB81A80FB91F8D9108
:101580009C91119724853585220F331FEB016A81C9
:101590007B81EB01C20FD31F0990D881C02D149617
:1015A0002D913C9161E070E0232B11F062E070E03E
:1015B000C69F9001C79F300DD69F300D1124A08586
:1015C000B1852A9FB0012B9F700D3A9F700D112499
:1015D000A481B5812A9FF0012B9FF00D3A9FF00D59
:1015E00011248E0F9F1FFA0191838083738362837E
:1015F000DF91CF9108952F923F924F925F926F9219
:101600007F928F929F92AF92BF92CF92DF92EF9292
:10161000FF920F931F93CF93DF9300D000D0CDB7ED
:10162000DEB7DC011496ED91FC910190F081E02D84
:10163000808591859A838983A281B381BC83AB83A2
:10164000FB0181909190A190B190C12CD12C760199
:10165000C814D904EA04FB04CCF026960FB6F8941B
:10166000DEBF0FBECDBFDF91CF911F910F91FF90D5
:10167000EF90DF90CF90BF90AF909F908F907F9032
:101680006F905F904F903F902F90089544805580C9
:10169000668077804085518562857385CF0140964D
:1016A0009E838D83A081B1819D0183E0220F331F32
:1016B0008A95E1F7A981BA8112968D919C91D90101
:1016C000A80FB91F2D903C9011970484F585E02D4B
:1016D000EE0FFF1F8B819C81E80FF91F0190F081B5
:1016E000E02D14968D919C91892B41F581E090E03D
:1016F000E89F9001E99F300DF89F300D1124249F41
:101700008001259F100D349F100D1124249DC001D0
:10171000259D900D349D900D1124A8016D817E8131
:10172000820D931D0E946E30ED81FE81E00FF11F4E
:101730009FEFC91AD90AE90AF90A8ACF82E090E034
:10174000D7CFCF93DF93DB01AE5FBC4F2C91222329
:1017500069F024E4269FF001279FF00D1124E35542
:10176000FB4FEF0119922A95E9F71C9224E4269F7A
:10177000F001279FF00D1124E355FB4F14821582D1
:10178000168217821186108613861286118A108A95
:1017900017861686DF91CF9172CE2F923F924F928D
:1017A0005F926F927F928F929F92AF92BF92CF92F1
:1017B000DF92EF92FF920F931F93CF93DF9300D0AE
:1017C00000D01F921F92CDB7DEB724E4269FF00110
:1017D000279FF00D1124E355FB4F048115812681CD
:1017E0003781012B022B032B09F4B7C02A016B01AF
:1017F0007C0110E000E0812C912C54013F019F01FD
:10180000285F3F4F3C832B83CF0104969E838D83BB
:10181000AB81BC818D919C91ED81FE814081518194
:101820006281738184169506A606B706E4F10E94CC
:10183000E52FD3011A968D919C91892B09F07EC0DA
:1018400084E48C9DD0018D9DB00D1124A355BB4F18
:10185000BC83AB8350968D919C910E94E52FEB81C8
:10186000FC81868597850E94E52FC701B60107DEBA
:10187000C701B60128960FB6F894DEBF0FBECDBFE4
:10188000DF91CF911F910F91FF90EF90DF90CF905C
:10189000BF90AF909F908F907F906F905F904F9090
:1018A0003F902F904ECFFC01E00FF11F9281998362
:1018B000A381AA839F83A887312C212C241435046B
:1018C00064F089819A810E94E52FEFEF8E1A9E0ABB
:1018D000AE0ABE0A0C5F1F4F9BCFAF81B885ED915A
:1018E000FD91B887AF83309759F0848195810E942C
:1018F000E52FEF81F8853297808191810E94E52F55
:10190000BFEF2B1A3B0ADACF800F911FFC018481B5
:1019100095810E94E52F2B813C812F5F3F4F3C83B7
:101920002B83025F1F4FF501808191812B813C81C8
:10193000241535054CF30E94E52F82CF10E000E01E
:101940001C821B8224E42C9DC0012D9D900D11242E
:10195000DC01A954BB4F5D01E6CF28960FB6F89481
:10196000DEBF0FBECDBFDF91CF911F910F91FF90D2
:10197000EF90DF90CF90BF90AF909F908F907F902F
:101980006F905F904F903F902F90089524E4269F92
:10199000F001279FF00D1124E355FB4F82899389B5
:1019A0000497029758F485E090E0938B828B8FEF39
:1019B0009FEFDC01828F938FA48FB58F08952F92B4
:1019C0003F924F925F926F927F928F929F92AF92CF
:1019D000BF92CF92DF92EF92FF920F931F93CF931C
:1019E000DF93CDB7DEB7AA970FB6F894DEBF0FBE70
:1019F000CDBF9AA389A37E8B6D8B1A01098B1A8B9D
:101A00002B8B3C8B84E429893A89829F6001839FD8
:101A1000D00C1124860103551B4F89899A89AB8903
:101A2000BC89F80180839183A283B383AB01BC019D
:101A3000CD01B3DED601AF54BB4F84E0F10101907C
:101A40000D928A95E1F7F4E02F0E311C64E070E00E
:101A5000D80114968D919C910E942F2FF8019187A7
:101A60008087892B09F0F5C04D895E8969897A895B
:101A70008B899C8992DE81E0AA960FB6F894DEBF2E
:101A80000FBECDBFDF91CF911F910F91FF90EF90CF
:101A9000DF90CF90BF90AF909F908F907F906F908E
:101AA0005F904F903F902F900895A9A5BAA58D9172
:101AB0009C91E98DFA8DE80FF91FF88FEF8BD1011A
:101AC0008D919C91880F991FA9A1BAA1ED91FC91CC
:101AD000E80FF91F80819181EF89F88D91838083D0
:101AE000D10114962D913D914D915C9117972BA3A7
:101AF0003CA34DA35EA362E070E08D899E890E94A5
:101B00002F2FEF89F88D93838283892B09F4ACCF33
:101B1000F8E02F0E311C412C512C32012BA13CA19D
:101B20004DA15EA142165306640675069CF02B8DEE
:101B30003C8D4D8D5E8D2F5F3F4F4F4F5F4F2B8FF5
:101B40003C8F4D8F5E8F498D5A8D4C5F5F4F5A8F02
:101B5000498F90C0610124E0C20ED11CD101ED90EB
:101B6000FC90EE0CFF1CEF89F88D82819381E80ECA
:101B7000F91E68E070E081E090E00E942F2F8C0158
:101B8000D7018D939C93892B09F46ECF84E0F601E5
:101B9000D80101900D928A95E1F7B8E02B0E311C27
:101BA000F80180819181A281B381181619061A0665
:101BB0001B06DCF464E070E00E942F2FD80115961C
:101BC0009C938E931497892B09F44ECFD12CC12C62
:101BD000812C912C5401F80180819181A281B381E3
:101BE00088169906AA06BB0634F0FFEF4F1A5F0A63
:101BF0006F0A7F0A93CFF801E480F580EC0CFD1C9E
:101C000080E1F101DE01119601900D928A95E1F7D4
:101C1000F0E12F0E311CA701BE016F5F7F4FA9A11C
:101C2000BAA114968D919C9195DCF80186819781DB
:101C3000D70112962D913C91820F931F9783868333
:101C4000BFEF8B1A9B0AAB0ABB0AE4E0CE0ED11C95
:101C5000C2CF1A8E198E1B8E1C8E1D8E1E8E18A33F
:101C60000F8FA8014C5F5F4F58A74FA3C80108967C
:101C70009AA789A7EFA1F8A580819181A281B3815C
:101C80002B8D3C8D4D8D5E8D281739074A075B07DC
:101C90000CF40BCF6EE070E08D899E890E942F2F8F
:101CA000AF8DB8A11B969C938E931A97B12CA12C43
:101CB000D12CC12CF12CE12C24E4E989FA892E9F46
:101CC000C0012F9F900D11249C0129543B4F388F48
:101CD0002F8B88248394912C4D895E89C416D50658
:101CE00054F184E4A989BA898A9F80018B9F100DE1
:101CF000112403551B4FF80115861486C70133E0E4
:101D0000880F991F3A95E1F70E94492FD801519603
:101D10009C938E935097892B09F4A6CEC701880F08
:101D2000991F0E94492FF80197878687892B09F40C
:101D30009BCE80E0A1CED1014D905D906D907D90C5
:101D40001D0177FC91CEEF89F88D008111810A0D7C
:101D50001B1DD80111969C928E924114510461046E
:101D6000710429F1C2010E94492FF80195838483EF
:101D7000892B09F479CEF8015382428284819581BE
:101D800097838683918780871386128681E090E00F
:101D900045284628472811F490E080E0E80EF91E17
:101DA000FFEFCF1ADF0A2EE0A20EB11C95CF1596D9
:101DB0001C921E921497DFCF2F923F924F925F9208
:101DC0006F927F928F929F92AF92BF92CF92DF924B
:101DD000EF92FF920F931F93CF93DF93CDB7DEB7B0
:101DE0006A970FB6F894DEBF0FBECDBF9E8B8D8B6A
:101DF00049015A0184E4829F7001839FF00C1124F1
:101E0000970123553B4F6901FB0180819181F901C5
:101E1000958B848BD701AD53BB4FFB01349684E087
:101E200001900D928A95E1F7D701A953BB4FFB01B1
:101E3000389684E001900D928A95E1F7D701A55379
:101E4000BB4FFB013C9684E001900D928A95E1F72F
:101E5000D701A552BB4FFB01709684E001900D9213
:101E60008A95E1F78B010C5E1F4FF90186A597A5B6
:101E7000A0A9B1A918161906DCF5880F991F880FBB
:101E8000991F0E94492FF60193AB82AB892B09F46D
:101E9000D3C0312C212C412C512C32019601225DD2
:101EA0003F4F388F2F8BC601C2969A8F898FF49639
:101EB000FC8BEB8BB301A2012FEF421A520A620A8C
:101EC000720AEF89F88D80819181A281B3814817D0
:101ED00059076A077B070CF47BC0F60184A995A912
:101EE0000E94492FF60197AB86AB892B09F4A4C059
:101EF000F80180819181A281B38124E4289DF001C1
:101F0000299DF00D1124E355FB4FAC01BD014D7F20
:101F100021E030E0452B462B472B11F030E020E04C
:101F200033A322A324E4289DF001299DF00D112460
:101F3000E355FB4F0197A109B10921E030E0029779
:101F4000A105B10510F030E020E035A324A3D701AE
:101F5000AD52BB4FF801349684E001900D928A9502
:101F6000E1F784E4889DF001899DF00D1124E3558B
:101F7000FB4F868D978DA0A1B1A1B7FF58C0B0953A
:101F8000A095909581959F4FAF4FBF4F82AF93AF74
:101F9000A4AFB5AF168E178E10A211A280E06A967C
:101FA0000FB6F894DEBF0FBECDBFDF91CF911F916A
:101FB0000F91FF90EF90DF90CF90BF90AF909F90E8
:101FC0008F907F906F905F904F903F902F900895EB
:101FD000E98DFA8D808191819C01220D331D3A8B10
:101FE000298B80E1F801DE01119601900D928A950E
:101FF000E1F7005F1F4F49895A89BE016F5F7F4F2C
:10200000ED89FE8984819581A5DAEB89FC8980813F
:102010009181E989FA8922813381820F931FEB89AB
:10202000FC8991838083F4E02F0E311C43CF12AEE4
:1020300013AE14AE15AEB2CFC501B40120DA81E003
:10204000AECFCF92DF92EF92FF92CF93DF931092B9
:10205000350524E4269FF001279FF00D1124E35558
:10206000FB4F15A614A630E020E0D12CC12CDF01D7
:102070001A96C1E0D0E0C416D506F4F024E4269FF9
:10208000F001279FF00D1124E355FB4F13A612A674
:1020900011AE10AEDF01DE961D921D921D921C92B4
:1020A000139782E090E0938B828BDF91CF91FF902A
:1020B000EF90DF90CF900895ED91FC911197E20F92
:1020C000F31FE280F3801E141F0454F4E480F580B3
:1020D000F782E682F186E08613861286D183C0837A
:1020E000EFEFCE1ADE0A225F3F4FC5CF24E4269FD2
:1020F000F001279FF00D1124E355FB4F138A128A3C
:102100004CCB24E4269FF001279FF00D1124E355CA
:10211000FB4F8289938981309105C8F08530910504
:1021200018F0059769F008958FEF9FEFDC01828F1B
:10213000938FA48FB58F85E090E0938B828B089569
:102140008FEF9FEFDC01828F938FA48FB58F08955F
:1021500024E4249FD001259FB00D1124A355BB4F2B
:102160002EE0AC01249FC001259F900D11241A96EA
:10217000ED91FC91E80FF91F81E080933505828590
:10218000938591878087408551852681378181E0BD
:1021900090E04217530711F090E080E09183808334
:1021A00008952F923F924F925F926F927F928F92FB
:1021B0009F92AF92BF92CF92DF92EF92FF920F93D6
:1021C0001F93CF93DF93CDB7DEB7C055D1090FB6BC
:1021D000F894DEBF0FBECDBF9EAF8DAF4BA75CA7FF
:1021E0006DA77EA76801790184E4809FF001819F3B
:1021F000F00D1124E355FB4F2285338523963FAF25
:102200002EAF239782899389029761F486A597A5BB
:10221000A0A9B1A9892B8A2B8B2BC9F584E090E06A
:10222000938B828B84E48C9DF0018D9DF00D1124A5
:10223000E355FB4F828993898230910509F037C2BB
:1022400082AD93ADA4ADB5AD22242394312C1816E4
:1022500019061A061B060CF42FC2C05BDF4F0FB61F
:10226000F894DEBF0FBECDBFDF91CF911F910F91CC
:10227000FF90EF90DF90CF90BF90AF909F908F90A6
:102280007F906F905F904F903F902F90089584893A
:1022900095894DAD5EAD8417950721F606A917A95E
:1022A00018AE1FAA1BAA1CAA1DAA1EAA1F01CF0195
:1022B0008E9627969FAF8EAF2797DF01D2962996ED
:1022C000BFAFAEAF2997F8962B96FFAFEEAF2B9727
:1022D00091012A5D3F4F2D963FAF2EAF2D97A10163
:1022E0004E5D5F4F2F965FAF4EAF2F970A97619667
:1022F0009FAF8EAF61972796EEADFFAD2797808198
:102300009181A281B3812BA93CA94DA95EA928176F
:1023100039074A075B0744F081E090E0D101D99684
:102320009C938E93D8977ECF2996AEADBFAD29975B
:10233000ED91FC912FA938ADE20FF31F428153813B
:102340005AAF49AF50815FAF818121968FAF2197FE
:102350002B96AEADBFAD2B978D919C91892B21F122
:102360002D96EEADFFAD2D9780809180A280B38039
:102370001AAB09AB5FA72196FFAD2197F8AB29AD4A
:102380003AAD369527953695279525963FAF2EAFD2
:1023900025971CAE1BAE2596AEADBFAD2597EBAD18
:1023A000FCADEA17FB070CF149AD5AAD6FAD2196B4
:1023B0007FAD2197C8010E946E3089AD9AAD8C7FA8
:1023C000080F191F2BA93CA94DA95EA92F5F3F4FEC
:1023D0004F4F5F4F2BAB3CAB4DAB5EAB4FA958ADF6
:1023E0004C5F5F4F58AF4FAB86CF2F96AEADBFADB2
:1023F0002F978D919C91892B71F1EFA5F8A94080C1
:10240000518062807380A3019201C501B4010E94D2
:10241000EF2C181664F0A9A9BAA92D913D914D9100
:102420005C91C501B4010E94772E1816BCF1A3017E
:102430009201C501B4010E94EF2C87FF0CC0E9A9ED
:10244000FAA92081318142815381C501B4010E94E2
:10245000EF2C882319F16196AEADBFAD61978D91D8
:102460009C91892B09F445C0EFA5F8A940805180C3
:1024700062807380A3019201C501B4010E94772E8E
:1024800018161CF5A9A9BAA92D913D914D915C9101
:10249000C501B4010E94EF2C18165CF184E48C9DF8
:1024A000F0018D9DF00D1124E355FB4F868D978D26
:1024B000A0A1B1A1892B8A2B8B2B69F183E090E03D
:1024C000938B828B81E090E02CC0A3019201C50127
:1024D000B4010E94EF2C81110CC0E9A9FAA9208156
:1024E000318142815381C501B4010E94EF2C87FDE7
:1024F000D5CF2BAD3CAD2F5F3F4F3CAF2BAF49A9A4
:102500005AA94C5F5F4F5AAB49AB8FA598A9049667
:1025100098AB8FA740CF84E090E0938B828B86AD01
:1025200097AD93A782A77ECEEBADFCAD8081918164
:10253000F401EE0FFF1FEE0FFF1FE80FF91FA08140
:10254000B1818C9181110AC0FFEF8F1A9F0AAF0AE7
:10255000BF0A8DA29EA2AFA2B8A68FC18330A1F3FD
:102560000280F381E02D2FA938ADE20FF31F8081A7
:1025700091819AAB89AB892B39F34F5F5F4F6F4FD6
:102580007F4F49875A876B877C879E01235E3F4F29
:10259000AE01475D5F4F64E070E0C8010E94D20960
:1025A0008111D0C18D819E81AF81B8850496A11D16
:1025B000B11D8D839E83AF83B8874D8D5E8DBE0127
:1025C0006B5D7F4F8F8D98A10E946E308BA19CA177
:1025D000009761F06D8D7E8DA5E2B0E0AC0FBD1F60
:1025E0006A0F7B1F49A15AA10E946E301CAA1BAA28
:1025F000412C512C3201E9A9FAA980819181A28153
:10260000B381481659066A067B060CF09DCFE9A9EE
:10261000FAA9848195812BA93CA9280F391F38ABD1
:102620002FA7D90112966D917C919E01235E3F4F99
:10263000AE01475D5F4FC8010E94D209811182C17E
:10264000EFA5F8A982819381092E000CAA0BBB0B80
:102650004D815E816F817885840F951FA61FB71FFE
:102660008D839E83AF83B887608171814D8D5E8D30
:102670008F8D98A10E946E308BA19CA1009761F074
:10268000AFA5B8A96D917C912D8D3E8D620F731F02
:1026900049A15AA10E946E30BFEF4B1A5B0A6B0A28
:1026A0007B0AEBA9FCA93496FCABEBABA4CF312C95
:1026B000212C049709F0D1CD8EE0EDADFEAD8E9FBB
:1026C00080018F9F100D112423962EAD3FAD2397CF
:1026D000020F131FD80112964D915C91139741156B
:1026E000510509F4BACD16968D919C919AA789A7A8
:1026F00080E1FE013196DF011D928A95E9F7C98AD2
:10270000DA8AEB8AFC8A2114310409F458C084E483
:102710008C9DF0018D9DF00D1124E355FB4FDF01E1
:10272000DE968D909D90AD90BC9082AD93ADA4ADA2
:10273000B5AD88169906AA06BB0609F040C0F80197
:10274000848195810084F185E02D349624E0DE01BA
:10275000559601900D922A95E1F72D893E89285FC3
:102760003F4F3E8B2D8BD80118966D917C91199718
:10277000260F371F19963C932E93189718962D9174
:102780003C911997480F591F241B350B37FD06C084
:10279000820F931F19969C938E93189784E48C9DB7
:1027A000F0018D9DF00D1124E551FB4FB1E08B1A26
:1027B0009108A108B10880829182A282B3829E0111
:1027C0002B5E3F4FAE01475D5F4F64E170E0C80193
:1027D0000E94D2098111B6C08CE090E0A0E0B0E088
:1027E0008D839E83AF83B8879E01235E3F4FAE01EA
:1027F000475D5F4F64E070E0C8010E94D20981111B
:10280000A1C080E190E0A0E0B0E08D839E83AF8323
:10281000B8874D8D5E8DBE01655D7F4F8F8D98A110
:102820000E946E308BA19CA1009761F06D8D7E8D12
:10283000EBE2F0E0EC0FFD1F6E0F7F1F49A15AA1E4
:102840000E946E301DA21EA21FA218A62DAD3EAD85
:10285000220F331F38AF2FAB24E42C9DC0012D9DD8
:10286000900D112483559B4FAC014C5F5F4F5AAFC5
:1028700049AFDC011896BCAFABAF8DA09EA0AFA056
:10288000B8A449855A856B857C85E9ADFAAD808110
:102890009181A281B38188169906AA06BB060CF421
:1028A00043CE452B462B472B09F4D7CC8AE190E049
:1028B000A0E0B0E089839A83AB83BC832DAD3EADAD
:1028C000C901330FAA0BBB0B8D879E87AF87B88BCF
:1028D0004D895E89BE016F5F7F4F8F89988D0E9401
:1028E0006E308B8D9C8D009761F06D897E8941E003
:1028F00050E04C0F5D1F640F751F498D5A8D0E946B
:102900006E3089A59AA5D80117969C938E93169739
:1029100011961C921E92232809F49FCC84E48C9D6E
:10292000F0018D9DF00D1124E551FB4F80819181C7
:10293000A281B3810196A11DB11D80839183A283E1
:10294000B3838BCC232809F088CC84E48C9DF001E0
:102950008D9DF00D1124E355FB4F81E090E095A78C
:1029600084A785E090E0938B828B77CCCF92DF9227
:10297000EF92FF920F931F9324E4269FF001279F6D
:10298000F00D1124E355FB4F2289338921153105C0
:1029900009F452C06B017C0121303105B1F482A5EC
:1029A00093A59C012F5F3F4F33A722A7092E000C50
:1029B000AA0BBB0B028D138D248D358D80179107CB
:1029C000A207B307C9F5C7013CDB84E48C9DF00185
:1029D0008D9DF00D1124E355FB4F82899389039758
:1029E00059F582A593A59C012F5F3F4F33A722A7DE
:1029F000092E000CAA0BBB0B468D578D60A171A14F
:102A000084179507A607B707BCF086AD97AD93A7C7
:102A100082A784E090E0938B828B82AD93ADA4ADCE
:102A2000B5AD181619061A061B0634F4EE5BFF4FF7
:102A300081E090E0918380831F910F91FF90EF9050
:102A4000DF90CF90089524E4269FF001279FF00D9A
:102A50001124E355FB4F828993890497B1F482A531
:102A600093A5019693A782A7092E000CAA0BBB0B76
:102A700046895789608D718D84179507A607B7071A
:102A800021F485E090E0938B828B08952F923F9202
:102A90004F925F926F927F928F929F92AF92BF926E
:102AA000CF92DF92EF92FF920F931F93CF93DF931A
:102AB000CDB7DEB72E970FB6F894DEBF0FBECDBFF1
:102AC000DC0149835A836B837C83290184E4849FDE
:102AD000F001859FF00D1124E355FB4F22883388C8
:102AE000C1010497029708F0D7C011961C921E925C
:102AF00013961C921E92129715861486912C812C87
:102B000090E080E08F019F01205F3F4F38872F8347
:102B10003F013CE0630E711CBF01625F7F4F7A870B
:102B200069873A96FC87EB87EF81F88520813181B0
:102B3000F30140815181E985FA85A080B180841537
:102B400095050CF446C011965C934E9313963C93F6
:102B50002E9312971596BC92AE921497452B01F5C1
:102B6000F5E02F163104E1F410923505F801828D5D
:102B7000938DA48DB58DAE014F5F5F4F64E070E023
:102B80008F3F9F4FAF4FBF4F09F07AC080E290E078
:102B90000E947E2369817A818B819C81A201A6DAC1
:102BA0002E960FB6F894DEBF0FBECDBFDF91CF914A
:102BB0001F910F91FF90EF90DF90CF90BF90AF905B
:102BC0009F908F907F906F905F904F903F902F904D
:102BD0000895EB85FC8560817181FB01E80DF91D8D
:102BE000FE87ED8760817181672B89F5E084F18430
:102BF000628173817E836D83668177816A01E3E000
:102C0000CC0CDD1CEA95E1F72C0D3D1D440F551F42
:102C10004A0D5B1DFA0191838083F301408151814C
:102C20004F5F5F4F51834083F901F382E282ED856C
:102C3000FE8573876287E616F70670F46E197F09C2
:102C4000F9017183608315821482178216820196BE
:102C5000FEE08F0E911C68CFED85FE85C480D58087
:102C60004D815E814C0D5D1D4E195F09F901518347
:102C700040836C197D0975836483D782C682E7CF50
:102C80008FE190E00E947E23F80113A612A681E056
:102C900090E0938B828B84CF1586148611961C92BC
:102CA0001E9213961C921E9212977ACFEF92FF9269
:102CB0000F931F93CF93DF937C018B01EA010E9456
:102CC0005A2481111EC0809104039091050304973A
:102CD00011F5DF91CF911F910F91FF90EF90089523
:102CE00028ED38EB45E050E060E070E0CB010E9459
:102CF0001227AE01B801C7010E942027C8010E9417
:102D0000EB268091360590913705892BE1F6888175
:102D1000882331F3D8CF83E090E09093050380932C
:102D20000403D7CFCF93DF932091040330910503A1
:102D30002430310541F0EB010E942027CE01DF91C4
:102D4000CF910C94EB26DF91CF9108950C941A2B20
:102D50000C940F2B0C94FD2A0C94FB260C94A22AA5
:102D6000089570E060E090E080E00C9435240895D0
:102D7000AF92BF92CF92DF92EF92FF920F931F9389
:102D8000CF93DF931F921F92CDB7DEB75C018B010B
:102D900069017A0190E080E0C114D104E104F104FA
:102DA00069F40F900F90DF91CF911F910F91FF90D9
:102DB000EF90DF90CF90BF90AF9008959C2D8D2D18
:102DC000C114D10421E0E206F10410F09FEF8FEF6F
:102DD0009E012F5F3F4F492F582FB801C5010E9418
:102DE000AB2B8F3F9807E9F229813A81C21AD30AA7
:102DF000E108F108020F131FCFCF0895089588301E
:102E000008F076C0E82FF0E0EE0FFF1FEA5FFC4FFE
:102E1000718360838150873008F03DC0E82FF0E077
:102E20008827EA5EF84E8F4F0C94132F53171D1707
:102E3000251731173E175F176C17809169008C7F3B
:102E4000482B40936900E89A089580916900837F38
:102E5000440F551F440F551F482B40936900E99AB2
:102E60000895809169008F7C74E0440F551F7A9516
:102E7000E1F7482B40936900EA9A08958091690030
:102E80008F7366E0440F551F6A95E1F7482B409316
:102E90006900EB9A089580916A008C7F482B4093DB
:102EA0006A00EC9A089580916A00837F440F551F51
:102EB000440F551F482B40936A00ED9A0895809166
:102EC0006A008F7C24E0440F551F2A95E1F7482BB8
:102ED00040936A00EE9A089580916A008F7396E09D
:102EE000440F551F9A95E1F7482B40936A00EF9ADB
:102EF00008951F920F920FB60F9211240BB60F92E6
:102F00002F933F934F935F936F937F938F939F93F1
:102F1000AF93BF93EF93FF93E0910A03F0910B03FC
:102F20001995FF91EF91BF91AF919F918F917F91F3
:102F30006F915F914F913F912F910F900BBE0F902A
:102F40000FBE0F901F9018951F920F920FB60F9201
:102F500011240BB60F922F933F934F935F936F9370
:102F60007F938F939F93AF93BF93EF93FF93E091E2
:102F70000C03F0910D031995FF91EF91BF91AF9163
:102F80009F918F917F916F915F914F913F912F9181
:102F90000F900BBE0F900FBE0F901F9018951F92B1
:102FA0000F920FB60F9211240BB60F922F933F93EF
:102FB0004F935F936F937F938F939F93AF93BF9341
:102FC000EF93FF93E0910E03F0910F031995FF919A
:102FD000EF91BF91AF919F918F917F916F915F9191
:102FE0004F913F912F910F900BBE0F900FBE0F90FE
:102FF0001F9018951F920F920FB60F9211240BB6C7
:103000000F922F933F934F935F936F937F938F9381
:103010009F93AF93BF93EF93FF93E0911003F091D1
:1030200011031995FF91EF91BF91AF919F918F91EE
:103030007F916F915F914F913F912F910F900BBEB8
:103040000F900FBE0F901F9018951F920F920FB602
:103050000F9211240BB60F922F933F934F935F93D0
:103060006F937F938F939F93AF93BF93EF93FF9350
:10307000E0910603F09107031995FF91EF91BF913D
:10308000AF919F918F917F916F915F914F913F9100
:103090002F910F900BBE0F900FBE0F901F901895A1
:1030A0001F920F920FB60F9211240BB60F922F930F
:1030B0003F934F935F936F937F938F939F93AF93C0
:1030C000BF93EF93FF93E0910803F09109031995E3
:1030D000FF91EF91BF91AF919F918F917F916F91F0
:1030E0005F914F913F912F910F900BBE0F900FBEAC
:1030F0000F901F9018951F920F920FB60F921124E8
:103100000BB60F922F933F934F935F936F937F93E1
:103110008F939F93AF93BF93EF93FF93E09112032D
:10312000F09113031995FF91EF91BF91AF919F918A
:103130008F917F916F915F914F913F912F910F9060
:103140000BBE0F900FBE0F901F9018951F920F92FD
:103150000FB60F9211240BB60F922F933F934F93FC
:103160005F936F937F938F939F93AF93BF93EF93EF
:10317000FF93E0911403F09115031995FF91EF91DE
:10318000BF91AF919F918F917F916F915F914F917F
:103190003F912F910F900BBE0F900FBE0F901F907D
:1031A00018951F920F920FB60F9211242F933F93F1
:1031B0008F939F93AF93BF938091390590913A0578
:1031C000A0913B05B0913C053091380523E0230FD9
:1031D0002D3758F50196A11DB11D20933805809318
:1031E000390590933A05A0933B05B0933C05809137
:1031F0003D0590913E05A0913F05B0914005019697
:10320000A11DB11D80933D0590933E05A0933F0500
:10321000B0934005BF91AF919F918F913F912F91B6
:103220000F900FBE0F901F90189526E8230F02965F
:10323000A11DB11DD2CF3FB7F89480913D0590916B
:103240003E05A0913F05B091400526B5A89B05C05D
:103250002F3F19F00196A11DB11D3FBFBA2FA92F15
:10326000982F8827BC01CD01620F711D811D911D12
:1032700042E0660F771F881F991F4A95D1F708957E
:103280008F929F92AF92BF92CF92DF92EF92FF9276
:103290006B017C01D0DF4B015C01C114D104E1045E
:1032A000F104D9F0AADDC7DF681979098A099B09F9
:1032B000683E73408105910580F321E0C21AD10870
:1032C000E108F10888EE880E83E0981EA11CB11C6D
:1032D000C114D104E104F10431F7FF90EF90DF90C5
:1032E000CF90BF90AF909F908F900895789484B5C1
:1032F000826084BD84B5816084BD85B5826085BDF2
:1033000085B5816085BDEEE6F0E0808181608083D7
:10331000E1E8F0E0108280818260808380818160BA
:103320008083E0E8F0E0808181608083E1EBF0E081
:10333000808184608083E0EBF0E080818160808325
:10334000E1E9F0E080818260808380818160808318
:10335000E0E9F0E0808181608083E1EAF0E0808153
:1033600082608083808181608083E0EAF0E08081F8
:1033700081608083E1E2F1E08081826080838081EE
:1033800081608083E0E2F1E0808181608083EAE710
:10339000F0E080818460808380818260808380818E
:1033A000816080838081806880831092C10008954D
:1033B0001F93CF93DF93182FEB0161E035D1209756
:1033C00031F460E0812FDF91CF911F9169C1CF3F30
:1033D000D10511F461E0F6CFE12FF0E0EC51FF4FA1
:1033E000E491E150E23108F0B3C0F0E08827E45006
:1033F000F64E8F4F0C94132F0E1A161A1B1A251AFD
:103400002F1AA81A391A411A491A531A5D1A671A3B
:10341000761A801AA81A8A1A941A9E1A84B5806895
:1034200084BDC7BDDF91CF911F91089584B580629F
:1034300084BDC8BDF7CF80918000806880938000F4
:10344000D0938900C0938800EDCF80918000806286
:1034500080938000D0938B00C0938A00E3CF80914B
:103460008000886080938000D0938D00C0938C0092
:10347000D9CF8091B00080688093B000C093B30032
:10348000D1CF8091B00080628093B000C093B4002F
:10349000C9CF80919000806880939000D09399006C
:1034A000C0939800BFCF809190008062809390007D
:1034B000D0939B00C0939A00B5CF80919000886014
:1034C00080939000D0939D00C0939C00ABCF8091DF
:1034D000A00080688093A0008091A0008F7B8093E3
:1034E000A000D093A900C093A8009CCF8091A00019
:1034F00080628093A000D093AB00C093AA0092CFCB
:103500008091A00088608093A000D093AD00C0930C
:10351000AC0088CF80912001806880932001D093F7
:103520002901C09328017ECF809120018062809381
:103530002001D0932B01C0932A0174CF80912001E8
:10354000886080932001D0932D01C0932C016ACF15
:10355000C038D1050CF03ECF34CF8150823108F015
:103560005AC0E82FF0E08827E754F54E8F4F0C94AF
:10357000132FD91ADD1ACB1AD11AD51A0B1BE01A40
:10358000E61AEA1AF01AF41AF81AFE1A021B0B1BB2
:10359000061B0C1B101B809180008F77809380008E
:1035A0000895809180008F7DF9CF80918000877F82
:1035B000F5CF84B58F7784BD089584B58F7DFBCF1B
:1035C0008091B0008F778093B00008958091B00013
:1035D0008F7DF9CF809190008F7780939000089530
:1035E000809190008F7DF9CF80919000877FF5CFFB
:1035F0008091A0008F778093A00008958091A00013
:103600008F7DF9CF8091A000877FF5CF8091200139
:103610008F77809320010895809120018F7DF9CFCD
:1036200080912001877FF5CFCF93DF9390E0FC015D
:10363000E65DFE4F249180599E4FFC0184918823C2
:10364000C9F090E0880F991FFC01E053FE4FA5914F
:10365000B491FC01EA54FE4FC591D49161110DC0A3
:103660009FB7F8948C91209582238C93888128238E
:1036700028839FBFDF91CF910895623051F49FB7A7
:10368000F8943C91822F809583238C93E8812E2B94
:10369000EFCF8FB7F894EC912E2B2C938FBFEACFFE
:1036A0001F93CF93DF93282F30E0F901EC51FF4FA8
:1036B0008491F901E65DFE4FD491F901E059FE4F86
:1036C000C491CC23A1F0162F811147DFEC2FF0E03D
:1036D000EE0FFF1FEA54FE4FA591B4918FB7F894F7
:1036E000EC91111108C0D095DE23DC938FBFDF91E0
:1036F000CF911F910895DE2BF8CFFC01918D228D83
:10370000892F90E0805C9F4F821B91098F739927CE
:103710000895FC01918D828D981731F0828DE80F0C
:10372000F11D858D90E008958FEF9FEF0895FC01C6
:10373000918D828D981761F0A28DAE0FBF2FB11DB4
:103740005D968C91928D9F5F9F73928F90E008950C
:103750008FEF9FEF0895FC01538D448D252F30E0AE
:10376000842F90E0821B930B541710F0CF9608958E
:1037700001970895FC01A48DA80FB92FB11DA35A7C
:10378000BF4F2C91848D90E001968F739927848F81
:10379000A689B7892C93A089B1898C9183708064A4
:1037A0008C93938D848D981306C00288F389E02D45
:1037B00080818F7D80830895CF93DF93EC01888D86
:1037C0008823B1F0AA89BB89E889F9898C9185FDA4
:1037D00003C0808186FD0CC00FB607FCF7CF8C912B
:1037E00085FFF2CF808185FFEDCFCE01C3DFEACF29
:1037F000DF91CF910895EF92FF920F931F93CF9394
:10380000DF93EC0181E0888F9B8D8C8D98131AC01B
:10381000E889F989808185FF15C09FB7F894EE8902
:10382000FF896083E889F98980818370806480835F
:103830009FBF81E090E0DF91CF911F910F91FF90AA
:10384000EF900895F62E0B8D10E00F5F1F4F0F7352
:103850001127E02E8C8D8E110BC00FB607FCFACF0E
:10386000E889F989808185FFF5CFCE0183DFF2CF2A
:10387000EB8DEC0FFD2FF11DE35AFF4FF0829FB748
:10388000F8940B8FEA89FB8980818062D0CFCF9238
:10389000DF92EF92FF921F93CF93DF93EC016A01C7
:1038A0007B01122FE889F98982E08083C11481EEBF
:1038B000D806E104F104A1F060E079E08DE390E046
:1038C000A70196010E94F12E2150310941095109A9
:1038D0005695479537952795211580E1380798F03B
:1038E000E889F989108260E874E88EE190E0A70128
:1038F00096010E94F12E2150310941095109569536
:10390000479537952795EC85FD853083EE85FF85B6
:103910002083188EEC89FD891083EA89FB898081D8
:1039200080618083EA89FB89808188608083EA895D
:10393000FB89808180688083EA89FB8980818F7D13
:103940008083DF91CF911F91FF90EF90DF90CF9018
:1039500008951F920F920FB60F9211240BB60F927B
:103960002F938F939F93EF93FF93E0915105F091E5
:1039700052058081E0915705F091580582FD1DC0E8
:10398000908180915A058F5F8F7320915B0582171C
:1039900041F0E0915A05F0E0EF5BFA4F958F80938C
:1039A0005A05FF91EF919F918F912F910F900BBE30
:1039B0000F900FBE0F901F9018958081F2CF1F922D
:1039C0000F920FB60F9211240BB60F922F933F93C5
:1039D0004F935F936F937F938F939F93AF93BF9317
:1039E000EF93FF9381E495E0C5DEFF91EF91BF91E6
:1039F000AF919F918F917F916F915F914F913F9187
:103A00002F910F900BBE0F900FBE0F901F90189527
:103A1000E1E4F5E01382128288EE93E0A0E0B0E0EA
:103A200084839583A683B7838EED93E0918380830F
:103A300085EC90E09587848784EC90E09787868773
:103A400080EC90E0918B808B81EC90E0938B828B6B
:103A500082EC90E0958B848B86EC90E0978B868B44
:103A6000118E128E138E148E08951F920F920FB620
:103A70000F9211240BB60F922F938F939F93EF9376
:103A8000FF93E091EE05F091EF058081E091F40560
:103A9000F091F50582FD1DC090818091F7058F5F43
:103AA0008F732091F805821741F0E091F705F0E05F
:103AB000E252FA4F958F8093F705FF91EF919F9116
:103AC0008F912F910F900BBE0F900FBE0F901F90F4
:103AD00018958081F2CF1F920F920FB60F9211248A
:103AE0000BB60F922F933F934F935F936F937F93F8
:103AF0008F939F93AF93BF93EF93FF938EED95E0DA
:103B000039DEFF91EF91BF91AF919F918F917F919E
:103B10006F915F914F913F912F910F900BBE0F903E
:103B20000FBE0F901F901895EEEDF5E013821282F4
:103B300088EE93E0A0E0B0E084839583A683B7830A
:103B40008EED93E0918380838DEC90E09587848760
:103B50008CEC90E09787868788EC90E0918B808B47
:103B600089EC90E0938B828B8AEC90E0958B848B30
:103B70008EEC90E0978B868B118E128E138E148EA6
:103B800008951F920F920FB60F9211240BB60F9249
:103B90002F938F939F93EF93FF93E0918B06F09178
:103BA0008C068081E0919106F091920682FD1DC005
:103BB0009081809194068F5F8F7320919506821774
:103BC00041F0E0919406F0E0E558F94F958F80932D
:103BD0009406FF91EF919F918F912F910F900BBEC3
:103BE0000F900FBE0F901F9018958081F2CF1F92FB
:103BF0000F920FB60F9211240BB60F922F933F9393
:103C00004F935F936F937F938F939F93AF93BF93E4
:103C1000EF93FF938BE796E0ADDDFF91EF91BF91BE
:103C2000AF919F918F917F916F915F914F913F9154
:103C30002F910F900BBE0F900FBE0F901F901895F5
:103C4000EBE7F6E01382128288EE93E0A0E0B0E0AA
:103C500084839583A683B7838EED93E091838083DD
:103C600085ED90E09587848784ED90E0978786873F
:103C700080ED90E0918B808B81ED90E0938B828B37
:103C800082ED90E0958B848B86ED90E0978B868B10
:103C9000118E128E138E148E08951F920F920FB6EE
:103CA0000F9211240BB60F922F938F939F93EF9344
:103CB000FF93E0912807F09129078081E0912E077A
:103CC000F0912F0782FD1DC09081809131078F5F99
:103CD0008F7320913207821741F0E0913107F0E0B5
:103CE000E85EF84F958F80933107FF91EF919F9198
:103CF0008F912F910F900BBE0F900FBE0F901F90C2
:103D000018958081F2CF1F920F920FB60F92112457
:103D10000BB60F922F933F934F935F936F937F93C5
:103D20008F939F93AF93BF93EF93FF9388E197E0B7
:103D300021DDFF91EF91BF91AF919F918F917F9185
:103D40006F915F914F913F912F910F900BBE0F900C
:103D50000FBE0F901F901895E8E1F7E013821282D2
:103D600088EE93E0A0E0B0E084839583A683B783D8
:103D70008EED93E09183808385E391E0958784873E
:103D800084E391E09787868780E391E0918B808B35
:103D900081E391E0938B828B82E391E0958B848B1E
:103DA00086E391E0978B868B118E128E138E148E84
:103DB0000895AF92BF92CF92DF92EF92FF920F934E
:103DC0001F93CF93DF936C017B018B01040F151FB1
:103DD000EB015E01AE18BF08C017D10759F0699119
:103DE000D601ED91FC910190F081E02DC60119956D
:103DF000892B79F7C501DF91CF911F910F91FF902A
:103E0000EF90DF90CF90BF90AF9008958230A9F0EF
:103E100028F4882349F0813051F00895843021F14D
:103E2000E8F0853039F1089510926E000895809180
:103E30006F008D7F80936F000895809170008D7F5B
:103E40008093700081E08093B0008091B100887F02
:103E500084608093B1001092B30008958091710046
:103E60008D7F809371000895809172008D7F809383
:103E700072000895809173008D7F80937300089580
:103E8000CF93C82F80911603C8130BC0EAEEF1E060
:103E900084919FEF90931603B9DF60E08C2FCF9150
:103EA000FFCB8FEFF9CF1F920F920FB60F92112415
:103EB0000BB60F922F933F934F935F936F937F9324
:103EC0008F939F93AF93BF93EF93FF938091B80726
:103ED0009091B907A091BA07B091BB07892B8A2BA3
:103EE0008B2BE1F19091B507E091B607F091B70700
:103EF0008081892780838091B8079091B907A0912C
:103F0000BA07B091BB07181619061A061B069CF4CF
:103F10008091B8079091B907A091BA07B091BB07FB
:103F20000197A109B1098093B8079093B907A093AD
:103F3000BA07B093BB07FF91EF91BF91AF919F91EB
:103F40008F917F916F915F914F913F912F910F9042
:103F50000BBE0F900FBE0F901F9018958091160307
:103F60008FDFE9CF40E855E260E070E090E080E06C
:103F700000C08130910571F01CF4892B39F008954F
:103F80008230910559F0039769F0089526E081E4A5
:103F900095E07DCC26E08EED95E0FBCF26E08BE72B
:103FA00096E0F7CF26E088E197E0F3CF1F920F92DB
:103FB0000FB60F9211240BB60F922F933F934F938E
:103FC0005F936F937F938F939F93AF93BF93EF9381
:103FD000FF938DEA98EF90932501809324010E942E
:103FE000E52BFF91EF91BF91AF919F918F917F91C1
:103FF0006F915F914F913F912F910F900BBE0F905A
:104000000FBE0F901F9018958DEA98EF90932501A1
:1040100080932401A3E7B0E08C918E7F8C93E0E243
:10402000F1E080818C7F8083E1E2F1E08081877E16
:10403000808380818460808380818C7F80838C9169
:1040400081608C93089581E008958F929F92AF9242
:10405000BF92CF92DF92EF92FF920F931F93CF9375
:10406000DF935C017B018A01C1E0D0E0CE15DF0562
:10407000CCF081E0F5018083B801C7010E94452B97
:10408000F5019283818390E080E0DF91CF911F91D1
:104090000F91FF90EF90DF90CF90BF90AF909F90E7
:1040A0008F9008956E018FEFC81AD80AFE01EE0FA7
:1040B000FF1FE00FF11F808091808114910469F04F
:1040C0006CEE73E0C4010E947E30892B41F4CC0F6A
:1040D000DD1FC00FD11F19821882E601C7CF6FEE16
:1040E00073E0C4010E947E30892BB9F7EC14FD0403
:1040F000A1F36E01E2E0CE0ED11CCC0FDD1FC00F8C
:10410000D11F198218821B821A82E7CF8CEB97E0AD
:10411000089580E008950F931F93CF93DF938B0151
:10412000BA01E901198218829801012E000C440B92
:10413000550BFC01818192810E94B816019641F0D5
:104140001983088380E0DF91CF911F910F9108952B
:1041500081E0F9CF0F931F93CF93DF931F921F92AC
:10416000CDB7DEB7FB018A01B9019E012F5F3F4F3A
:10417000AF01FC01818192810E945C2B019669F064
:1041800089819A81F8019183808380E00F900F905C
:10419000DF91CF911F910F91089581E0F7CFFC013E
:1041A000808108950895089581E0FB01808380E077
:1041B000089508951092E4070895FC018181928189
:1041C0000C943C2BCF93DF9300D000D000D01F92F3
:1041D000CDB7DEB7B0E0A0E089839A83AB83BC8320
:1041E000CB01770FAA0BBB0B8D839E83AF83B88760
:1041F0009E01275F3F4FAE014F5F5F4F68E070E069
:104200008091D3079091D40786DF811110C081E09F
:1042100029853A852830310509F480E02A960FB6C1
:10422000F894DEBF0FBECDBFDF91CF91089581E03E
:10423000F5CF0F931F93CF93DF931F921F92CDB7AC
:10424000DEB78B019E012F5F3F4FAC018091D307FA
:104250009091D40760DF81110EC081E029813A81FD
:104260002017310709F480E00F900F90DF91CF9174
:104270001F910F91089581E0F7CFCF93DF93EC0169
:104280001092D7071092D6071092E3071092E20718
:10429000AC0160E070E0CB010E947610AE0161E0FD
:1042A00070E080E090E00E9476108091D3079091BA
:1042B000D407DF91CF917DCF4F925F926F927F9223
:1042C0008F929F92AF92BF92CF92DF92EF92FF9226
:1042D0000F931F93CF93DF931F921F92CDB7DEB73B
:1042E0008C017C0197FF03C087E0E80EF11C23E0FE
:1042F000F594E7942A95E1F7C80168E070E00E9420
:10430000DE2E6C010E5F1F4F8091D1079091D20776
:1043100080179107D4F48091CF079091D007009730
:1043200031F00E94E52F1092D2071092D107C801F8
:104330000E94492F9093D0078093CF07892B09F4CF
:1043400082C01093D2070093D10710E000E047C16C
:10435000412C512C3201B12CA12C95012852384FFF
:10436000AE014F5F5F4F61E070E08091D3079091A5
:10437000D407F0DE811149C0EFEF4E1A5E0A6E0AD3
:104380007E0AF0E94F16FFE55F06F1E06F06710463
:1043900044F06091E2077091E3078DEE90E012DF48
:1043A000D7CF89819A81A80EB91E8AE0A816B104D8
:1043B00009F043C049E050E070E060E088ED97E02C
:1043C0000E94D72B6091E2077091E307882391F157
:1043D0008091E00790E08617970781F4BC018EEE8C
:1043E00090E0F0DE8091E2079091E3070196992733
:1043F0009093E3078093E2070F5F1F4F0E151F0591
:104400000CF4A6CFCD2809F07CC090E080E00F909E
:104410000F90DF91CF911F910F91FF90EF90DF9060
:10442000CF90BF90AF909F908F907F906F905F9054
:104430004F9008958FEE90E0B2CFEAE0AE16B1044F
:104440000CF48BCFDBCF10E000E0D8CF0A301105A1
:1044500031F549E050E070E060E088ED97E00E94BF
:10446000D72B6091E2077091E3078823A9F0809130
:10447000E00790E08617970741F6BC018EEE90E0CA
:10448000A1DE8091E2079091E3070196992790932E
:10449000E3078093E207B9CF8FEE90E02BC00A309C
:1044A00011050CF0B2CF98012852384FAE014F5F82
:1044B0005F4F61E070E08091D3079091D4074ADEAE
:1044C0008111A3CF89819A81080F191FFFEFCF1A9D
:1044D000DF0AEF0AFF0A80E9C8168FE5D80681E0F7
:1044E000E806F1040CF4B2CF6091E2077091E307A3
:1044F0008DEE90E067DE10E000E0C12CD12C76015B
:10450000D2CFC12CD12C760110E000E0CCCF412CD1
:10451000512C3201B12CA12C480193E0880C991C3C
:104520009A95E1F72091CF073091D007C501880D0A
:10453000991D280F391FAE014F5F5F4F61E070E09A
:104540008091D3079091D40705DE81115ECFEFEF04
:104550004E1A5E0A6E0A7E0A6091E2077091E307C6
:104560008DEE90E0F0E94F16FFE55F06F1E06F0693
:1045700071040CF043C089819A81A80EB91E8AE0AB
:10458000A816B10409F041C049E050E0B40180919F
:10459000CF079091D0070E94D72B6091E2077091CE
:1045A000E307882349F18091CF079091D007880EC7
:1045B000991EF401808590E08617970781F4BC016D
:1045C0008EEE90E0FFDD8091E2079091E307019687
:1045D00099279093E3078093E2070F5F1F4F0E1513
:1045E0001F050CF494CFC114D10409F081C080914F
:1045F000CF079091D0070BCF8FEE90E0E3DD412CF9
:10460000512C3201B12CA12C8DCFFAE0AF16B104A0
:104610000CF488CFE4CF8FEE90E0D4DDF12CE12CC8
:10462000812C912C540197012852384FAE014F5FD5
:104630005F4F61E070E08091D3079091D4078ADDED
:104640008111E3CE8FEF881A980AA80AB80A609100
:10465000E2077091E3078DEE90E0E0E98E16EFE55A
:104660009E06E1E0AE06B104C4F689819A81E80EA7
:10467000F91EFAE0EF16F104A9F549E050E070E008
:1046800060E088ED97E00E94D72B6091E20770917F
:10469000E307882309F4BFCF8091E00790E08617F5
:1046A000970709F0A4CFBC018EEE90E08BDD83E08C
:1046B000000F111F8A95E1F78091CF079091D007E5
:1046C000A60168ED77E0800F911F0E946E30809107
:1046D000E2079091E307019699279093E30780936F
:1046E000E20785CF8AE0E816F1040CF49CCF7FCF77
:1046F000812C912C5401F12CE12C95CFCF92DF929B
:10470000EF92FF920F931F93CF93DF931F92CDB73A
:10471000DEB76C017B018A01452B39F0AB0170E0FB
:1047200060E0C8010E94D32B8983B701C6014ADD2E
:1047300081110DC00115110551F0B701C80179DDD6
:10474000811105C061E070E0CE01019672DD0F902D
:10475000DF91CF911F910F91FF90EF90DF90CF905D
:104760000895CF92DF92EF92FF92CF93DF9300D024
:1047700000D01F921F92CDB7DEB76B01F12CE12C58
:10478000C982DA82EB82FC822D833E834F83588775
:10479000AE014F5F5F4F68E070E0B0DF28960FB664
:1047A000F894DEBF0FBECDBFDF91CF91FF90EF90A9
:1047B000DF90CF9008958F929F92AF92BF92CF9249
:1047C000DF92EF92FF920F931F93CF93DF937C01C1
:1047D000EB01CA01690170DD0097B1F42FEF3FEFE3
:1047E000A90161E070E0C701BCDFC1E08C2FDF915F
:1047F000CF911F910F91FF90EF90DF90CF90BF90DE
:10480000AF909F908F900895FC0181909190A1901E
:10481000B190BF01FCE1EF16F10479F4A501940118
:10482000CE010E94DC0EC82FA5019401882369F0F7
:1048300061E070E0C70195DFD9CF95018401AB013C
:10484000B601CE010E94DF0CEECF70E060E0C70140
:10485000DF91CF911F910F91FF90EF90DF90CF905C
:10486000BF90AF909F908F907CCF0F931F93CF936B
:10487000DF93EC018B014ADC9093D4078093D3073C
:104880000097A9F0A801BE01E0DBEC01892B49F0FB
:104890008091D3079091D40785DC1092D4071092B1
:1048A000D307CE01DF91CF911F910F910895CBEFE8
:1048B000D3E0EECF8091D3079091D40770CC2F92A4
:1048C0003F924F925F926F927F928F929F92AF92A0
:1048D000BF92CF92DF92EF92FF920F931F93CF93ED
:1048E000DF93CDB7DEB769970FB6F894DEBF0FBE82
:1048F000CDBF2091D7072223F9F05B8B4A8B6E87BF
:104900007F87888B998B9A01AB01BC01CE01019600
:104910007C010E94461510E048E0242E312CE88EE0
:10492000F98E89819A81181619060CF451C2112347
:1049300019F08A899B89A1DC69960FB6F894DEBFCD
:104940000FBECDBFDF91CF911F910F91FF90EF90E0
:10495000DF90CF90BF90AF909F908F907F906F909F
:104960005F904F903F902F900895EB81FC818C8554
:104970009D8533E0880F991F3A95E1F7E80FF91FFD
:10498000808191819093CE078093CD0724813581DA
:10499000428153815093CC074093CB074681578186
:1049A0005093CA074093C907820F931F9C01990F28
:1049B000440B550B2C8B3D8B4E8B5F8B812C912C9C
:1049C00054018C899D89AE89BF8988169906AA06EB
:1049D000BB0640F18C859D85880F991FED81FE8176
:1049E000E80FF91F4E855F856889798980819181FB
:1049F0000E94A810AC85BD851196BD87AC878981C2
:104A00009A81EC85FD85E817F9070CF4AECF2A8969
:104A10003B894E855F8568897989888D998D0E944B
:104A200046157FCF1F826091CD077091CE07CB01D5
:104A3000072E000CAA0BBB0B84017501640134E046
:104A4000C30ED11CE11CF11CC816D906EA06FB06F0
:104A500008F0B3C02091CB073091CC07A4014C5F84
:104A60005F4F240F351FF901C080D12CF12CE12CB0
:104A700024013501F5E04F0E511C611C711C4816D4
:104A800059066A067B0608F0A3C02091CB07309137
:104A9000CC07F8013596E20FF31F2081D22A2401BA
:104AA000350126E0420E511C611C711C4816590646
:104AB0006A067B0608F097C02091CB073091CC079F
:104AC000F8013696E20FF31F2081E22A2401350116
:104AD00037E0430E511C611C711C481659066A06CA
:104AE0007B0608F08BC02091CB073091CC07F801F2
:104AF0003796E20FF31F208126013701722A7501D4
:104B0000640148E0C40ED11CE11CF11C8C159D050C
:104B1000AE05BF0508F41DC188169906AA06BB0696
:104B200008F077C08091CB079091CC07800F911F40
:104B300068E070E07EDBE091CD07F091CE079F0149
:104B40000F2E000C440B550BD301C2018C0D9D1D83
:104B5000AE1DBF1D281739074A075B0708F478C048
:104B6000C216D306E406F50608F05DC08091CB07B7
:104B70009091CC079801285F3F4F820F931FB2019D
:104B800058DB8091CD079091CE07AC01092E000C27
:104B9000660B770BC416D506E606F70608F04DC07F
:104BA000085F1F4F8091CB079091CC07800F911F1A
:104BB000A20170E060E0F7D5A7C044E050E0461BDA
:104BC000570B480D591D2091C9073091CA0749CF8D
:104BD000E5E0F0E0E61BF70BE00FF11F2091C907BD
:104BE0003091CA0758CFE6E0F0E0E61BF70BE00F84
:104BF000F11F2091C9073091CA0764CFE7E0F0E0C8
:104C0000E61BF70BE00FF11F2091C9073091CA078F
:104C100070CF9801261B370B8091C9079091CA0766
:104C2000820F931F85CF91012E1B3F0B200F311F49
:104C30008091C9079091CA07A0CFD101A81BB90BD9
:104C4000CD01080F191F8091C9079091CA07AECFF7
:104C5000BF0168507109601B710BC216D306E406D0
:104C6000F50608F062C08091CB079091CC079801BF
:104C7000285F3F4F820F931FDCDA8091CD07909120
:104C8000CE07B101681B790B600F711F640D751D94
:104C90008091C9079091CA07CCDA8091CD07909195
:104CA000CE07AC0148505109FA01E01BF10BAC01F1
:104CB000092E000C660B770BC416D506E606F70620
:104CC00008F03DC08091CB079091CC079801285FF8
:104CD0003F4F820F931FAF0170E060E064D58F8378
:104CE0002091CD073091CE07F101E21BF30B9F011C
:104CF000200F311F240D351D50E040E0682F8091BA
:104D0000C9079091CA073BD58F8361E070E0CE015F
:104D100007968FDA182F38E0430E511C611C711C66
:104D2000840C951CA61CB71C4CCE91012E1B3F0B6E
:104D3000200F311F8091C9079091CA079BCF910125
:104D4000281B390B200F311F8091C9079091CA078A
:104D5000C0CF88169906AA06BB0668F5601B710BC2
:104D60008091CB079091CC07800F911F62DA8091E0
:104D7000CD079091CE07B101681B790B600F711FB1
:104D8000640D751D8091C9079091CA0752DA809110
:104D9000CD079091CE07AC01092E000C660B770B66
:104DA000C416D506E606F70608F4FACE9101281BCC
:104DB000390BC90146CFC801861B970B2091C90743
:104DC0003091CA07B201685F7F4F820F931FDECF19
:104DD0001D861C8614CECF93DF93EC01AC0160E0FE
:104DE00070E0CB016CDDAE0161E070E080E090E04E
:104DF000DF91CF9164CDCF938091D3079091D40769
:104E000088D9C82F81110BC060E070E0CB010E94EF
:104E1000A10B61E070E080E090E00E94A10B8C2F7C
:104E2000CF9108950F931F9389019A01AB01BC01A3
:104E30008091D3079091D407B6D91F910F9108950F
:104E40004F925F926F927F928F929F92AF92BF929A
:104E5000CF92DF92EF92FF920F931F93CF93DF9346
:104E6000CDB7DEB763970FB6F894DEBF0FBECDBFE8
:104E70006C018B015A018091D707882309F43DC04A
:104E80008091D707882309F442C08091D6071A82FF
:104E90001982882309F4BFC0F0E94F2EFFE55F2E89
:104EA00066246394712CF12CE12C97012154384F26
:104EB000AE014F5F5F4F61E070E08091D30790914A
:104EC000D40748D9982E811169C089819A81E80E4A
:104ED000F91EE114F10409F461C081E0481A510897
:104EE0006108710859F56091E2077091E3078DEE52
:104EF00090E068D91A82198251C067ED77E08091FD
:104F0000D3079091D40750D9882309F4B9CF639679
:104F10000FB6F894DEBF0FBECDBFDF91CF911F91CA
:104F20000F91FF90EF90DF90CF90BF90AF909F9048
:104F30008F907F906F905F904F900895AAE0EA164F
:104F4000F10409F062C049E050E070E060E08FEBEE
:104F500097E02DD46091E2077091E307882309F46C
:104F600051C08091C70790E08617970719F6BC01DA
:104F70008EEE90E027D988E0EFEBF7E0DE0119969E
:104F800001900D928A95E1F78091E2079091E307F5
:104F9000019699279093E3078093E20781E02981A6
:104FA0003A81121613060CF080E09110C7C28823D4
:104FB00009F4ADCF8091D607811104C019861A86F5
:104FC0001B861C8689859A85AB85BC8580319105B9
:104FD000A105B10508F09BCFFC018827EE50F84DE4
:104FE0008F4F21C772282F2A9E2A87277429A72925
:104FF00062286A284628832A722A7F2A87278727D9
:10500000872731288FEE90E074CFBAE0EB16F104D9
:105010000CF44BCFC3CFF12CE12CE8E06E2E712CB9
:1050200029E030E02C0F3D1F2E0D3F1DAE014F5FDC
:105030005F4FB3016E197F098091D3079091D40718
:1050400089D8982E29813A81811109C0E20EF31E78
:10505000E114F10421F0E8E0EE16F1040CF381E034
:10506000A0CFD6011696ED91FC9180819181A2810D
:10507000B38189839A83AB83BC83AE014F5F5F4F5B
:1050800064E070E085E190E039DB41CF8D859E855D
:1050900013D92FEF3FEFA90161E070E0009771F0A5
:1050A000FC01C080D180E280F380A801C701B60175
:1050B0000E942110A701960170E060E08DE190E070
:1050C00050DB25CF4D855E859801B6018BE190E0E0
:1050D00072DB1DCF4D855E852FEF3FEFB6018CE172
:1050E00090E0F6CFD6011496ED91FC9100811181EC
:1050F000F80182809380A080B18070E1472E512C0E
:10510000612C712C49825A826B827C8288E090E00B
:10511000A0E0B0E08D839E83AF83B8879E012F5EB1
:105120003F4FAE014F5F5F4F68E070E08091D30763
:105130009091D4070E948B208823D1F010E000E0EA
:10514000C80163960FB6F894DEBF0FBECDBFDF91E6
:10515000CF911F910F91FF90EF90DF90CF90BF9074
:10516000AF909F908F907F906F905F904F902DC7E2
:1051700089899A89089711F7D801ED90FC90B8E0D9
:10518000EB0EF11CEE0CFF1CEE0CFF1CC70181D6D0
:105190008C01892B99F249825A826B827C82C701E9
:1051A0000F2C000CAA0BBB0B8D839E83AF83B8879B
:1051B0009E012F5E3F4FAE014F5F5F4F68E070E092
:1051C0008091D3079091D4070E948B208111B8CF92
:1051D00089899A89089709F0B3CFD6011296ED9183
:1051E000FC914081518162817381D8014D935D931F
:1051F0006D937C93139744815581668177811496D2
:105200004D935D936D937C9317974085518562858F
:10521000738518964D935D936D937C931B9784854E
:105220009585A685B785F80184879587A687B78772
:10523000108A118A128A138A84E090E0A0E0B0E01C
:10524000848B958BA68BB78B80910403909105037B
:10525000B0E0A0E0808F918FA28FB38FC5010B2C9F
:10526000000CAA0BBB0B848F958FA68FB78FF40110
:10527000D801909690E080E08A159B055CF19E0134
:105280002F5E3F4FA801B7018091D3079091D407BB
:105290000E948B20811154CF89899A89E816F906DA
:1052A00009F04ECFA70170E060E0C8017CD28B8B83
:1052B0009E012F5E3F4FAE014D5E5F4F61E070E09B
:1052C0008091D3079091D4070E948B2081E0809336
:1052D000D60736CF4191519170E060E04D935D93D8
:1052E0006D937D930196C8CF8D859E85AF85B889D6
:1052F0000097A105B10521F481E08093D50707CE81
:105300000E945C21009781F481E090E0A0E0B0E091
:1053100089839A83AB83BC83AE014F5F5F4F64E0A8
:1053200070E082E190E0B0CEBC01C6010E94FB0AB1
:1053300019821A821B821C82AE014F5F5F4F64E0AC
:1053400070E082E190E0DAD98823B1F2E0CDD601B5
:105350001496ED91FC910190F081E02DE084F184B0
:105360008FEF8983E114F10409F472C0D7016D90C5
:105370007C90C280D38070E060E090E080E0861591
:10538000970594F083E190E00E94E22010E000E0B5
:105390008111BDCD061517055CF161E070E0CE010D
:1053A00001960E941921B3CD9C0143E0220F331FC7
:1053B0004A95E1F7F701A281B381A20FB31F1296BC
:1053C000ED91FC911397EE0FFF1FEC0DFD1D019069
:1053D000F081E02D16964D915C91E49F9001E59F40
:1053E000300DF49F300D1124620F731F0196C7CF4B
:1053F000D7011296ED91FC91C80123E0880F991F07
:105400002A95E1F7E80FF91FA080B180A281B3814E
:10541000AA0FBB1FAC0DBD1D2D913C9186819781BC
:10542000289F4001299F900C389F900C1124B401B3
:10543000C5010E941921582E940150E040E0698175
:10544000C5019DD18983511062CD0F5F1F4FA2CF3F
:1054500070E060E083E190E00E94E22058CD50E0EF
:1054600040E070E060E081E190E048D981114FCDEB
:1054700060E070E0CB010E94C60C80913505882366
:1054800029F0A80160E070E0CB0119DAA80160E022
:1054900070E0CB010E94CD0B61E070E080E090E015
:1054A0000E94C60C80913505882331F0A80161E087
:1054B00070E080E090E003DAA80161E070E080E055
:1054C00090E00E94CD0B1092D7071092D607109251
:1054D000E3071092E2078091D3079091D4070E94CE
:1054E000DA2015CD81E090E0909337058093360562
:1054F00050E040E070E060E086E190E0C5CD81E002
:10550000F501808304CD8D859E850E945C212FEF5F
:105510003FEFA90161E070E0009769F0DC01CD90F8
:10552000DD90ED90FC90C701B6010E948110A701AB
:10553000960170E060E08EE190E0C2CDC8010E946B
:105540003D21E5CCCF92DF92EF92FF92CF93DF9394
:10555000EC01C12CD12C7601C701B6010E94C60C0A
:10556000AE01C701B601ABD9AE01C701B6010E94B9
:10557000CD0B8091CF079091D007009729F025D5CA
:105580001092D0071092CF07CA94CD28CE28CF28EA
:1055900079F58091D607F12C882351F050E040E056
:1055A00070E060E084E190E0A9D8F82E1092D60770
:1055B0008091D707882341F01092D70781E090E0CF
:1055C00090930503809304038091D3079091D407AF
:1055D0000E94DD208091D3079091D4070E94D220B1
:1055E0008F2DDF91CF91FF90EF90DF90CF900895B6
:1055F000C12CD12C7601C394AFCFCF93DF93EC01B4
:10560000AC0160E070E0CB010E94B614AE0161E035
:1056100070E080E090E0DF91CF910C94B61460E0F0
:1056200070E0CB010E94231561E070E080E090E023
:105630000C942315CF92DF92EF92FF920F931F935A
:10564000CF93DF93EC016A017B0100E010E0980149
:105650000E94D11001E010E020E030E0B701A60187
:10566000CE010E94D110DF91CF911F910F91FF9039
:10567000EF90DF90CF90089568EE73E080E090E0C7
:105680000E94401990E080E0089526E040E050E15B
:105690006EE070E081E495E00E94471C81E495E0B3
:1056A0000E947D1B892B29F081E495E00E94971BC5
:1056B000F5CF90E080E00895CF92DF92EF92FF92D5
:1056C0000F931F93CF93DF936B017A01E901198246
:1056D000188281E495E00E947D1B8E159F0580F164
:1056E0008601CC24C39485E6D82E8091E4078111ED
:1056F00012C081E495E00E94971B85369105A9F7B9
:10570000C092E407F801D1928F01888199810196B6
:1057100099838883EACF888199818E159F0580F4CB
:1057200081E495E00E94971B8F3F9807A1F3F80151
:1057300081938F0188819981019699838883EBCF2A
:1057400090E080E0DF91CF911F910F91FF90EF905B
:10575000DF90CF9008950F931F93CF93DF93EA01CB
:10576000890181E495E00E94D91EF801D183C083AC
:1057700090E080E0DF91CF911F910F910895DC01BF
:10578000A40FB51F420F531F9D01281B390B24176F
:10579000350710F0862F0895ED91E627F0E0E551EA
:1057A000FE4F6491F1CF9A01AB016FEFE8CFCF9339
:1057B000FC01E60FF71FE40FF51FC081F4DF91E055
:1057C000C81390E0892FCF9108958091E70791E069
:1057D000980F9093E707882349F021E030E0309359
:1057E000E9072093E8078093E707089578940E94DB
:1057F0005305F8948091E70781508093E7070C9454
:10580000A816FF920F931F93CF93DF931F92CDB7EC
:10581000DEB71092E6071092E5070E9476190E9403
:10582000B21F0091400310914103F80111821082D0
:1058300070E060E090E080E00E94B1160E94B8073E
:105840007894C80186960E94B01681E090E00E948C
:10585000AC161982AE014F5F5F4F61E070E0F80156
:10586000828193810E9456168981882319F081E0F4
:10587000F80182A70E94B716F8940E940420F8014C
:1058800080819181892B19F481E092A5911180E0AA
:105890008093E50778947894FF24F3948091E5074A
:1058A000811110C00E94F30881E090E00E94AE16C2
:1058B000F89490E080E00F90DF91CF911F910F91CD
:1058C000FF9008951982AE014F5F5F4F61E070E075
:1058D000F801828193810E9492168981882311F0B8
:1058E000F801F2A6F80180819181892B89F481E089
:1058F00092A5911101C080E08093E6079091E607A0
:1059000081E0911180E08093E5070E942320C6CFBB
:1059100081E0F2CF5058BB27AA270ED097C188D17B
:1059200030F08DD120F031F49F3F11F41EF47DC191
:105930000EF4E095E7FB4AC1E92F99D180F3BA173D
:10594000620773078407950718F071F49EF5C8C1C4
:105950000EF4E0950B2EBA2FA02D0B01B90190018A
:105960000C01CA01A0011124FF27591B99F0593FCE
:1059700050F4503E68F11A16F040A22F232F342F16
:105980004427585FF3CF469537952795A795F04064
:105990005395C9F77EF41F16BA0B620B730B840B79
:1059A000BAF09150A1F0FF0FBB1F661F771F881F31
:1059B000C2F70EC0BA0F621F731F841F48F4879589
:1059C00077956795B795F7959E3F08F0B3CF939578
:1059D000880F08F09927EE0F979587950895D2D0F4
:1059E00008F481E0089504D06894B1117AC1089553
:1059F00046D188F09F5790F0B92F9927B751A0F062
:105A0000D1F0660F771F881F991F1AF0BA95C9F752
:105A100012C0B13081F064D1B1E0089561C1672F47
:105A2000782F8827B85F39F0B93FCCF38695779502
:105A30006795B395D9F73EF49095809570956195EB
:105A40007F4F8F4F9F4F0895E89409C097FB3EF416
:105A500090958095709561957F4F8F4F9F4F9923BB
:105A6000A9F0F92F96E9BB279395F6958795779539
:105A70006795B795F111F8CFFAF4BB0F11F460FFF9
:105A80001BC06F5F7F4F8F4F9F4F16C0882311F051
:105A900096E911C0772321F09EE8872F762F05C065
:105AA000662371F096E8862F70E060E02AF09A9500
:105AB000660F771F881FDAF7880F9695879597F9F5
:105AC0000895F7D080F09F3740F491110EF009C18E
:105AD00060E070E080E89FEB089526F41B16611DDE
